{
  "_format": "hh3-artifact-1",
  "contractName": "PlatformConfig",
  "sourceName": "contracts/platform_config/PlatformConfig.sol",
  "abi": [
    {
      "inputs": [],
      "stateMutability": "nonpayable",
      "type": "constructor"
    },
    {
      "inputs": [],
      "name": "AccessControlBadConfirmation",
      "type": "error"
    },
    {
      "inputs": [
        {
          "internalType": "address",
          "name": "account",
          "type": "address"
        },
        {
          "internalType": "bytes32",
          "name": "neededRole",
          "type": "bytes32"
        }
      ],
      "name": "AccessControlUnauthorizedAccount",
      "type": "error"
    },
    {
      "inputs": [
        {
          "internalType": "address",
          "name": "target",
          "type": "address"
        }
      ],
      "name": "AddressEmptyCode",
      "type": "error"
    },
    {
      "inputs": [
        {
          "internalType": "string",
          "name": "key",
          "type": "string"
        }
      ],
      "name": "ConfigAlreadyExists",
      "type": "error"
    },
    {
      "inputs": [
        {
          "internalType": "string",
          "name": "key",
          "type": "string"
        }
      ],
      "name": "ConfigNotFound",
      "type": "error"
    },
    {
      "inputs": [
        {
          "internalType": "address",
          "name": "implementation",
          "type": "address"
        }
      ],
      "name": "ERC1967InvalidImplementation",
      "type": "error"
    },
    {
      "inputs": [],
      "name": "ERC1967NonPayable",
      "type": "error"
    },
    {
      "inputs": [],
      "name": "EmptyKey",
      "type": "error"
    },
    {
      "inputs": [],
      "name": "EnforcedPause",
      "type": "error"
    },
    {
      "inputs": [],
      "name": "ExpectedPause",
      "type": "error"
    },
    {
      "inputs": [],
      "name": "FailedCall",
      "type": "error"
    },
    {
      "inputs": [],
      "name": "InvalidInitialization",
      "type": "error"
    },
    {
      "inputs": [
        {
          "internalType": "string",
          "name": "value",
          "type": "string"
        }
      ],
      "name": "InvalidNumberValue",
      "type": "error"
    },
    {
      "inputs": [
        {
          "internalType": "uint256",
          "name": "offset",
          "type": "uint256"
        },
        {
          "internalType": "uint256",
          "name": "limit",
          "type": "uint256"
        }
      ],
      "name": "InvalidRange",
      "type": "error"
    },
    {
      "inputs": [
        {
          "internalType": "uint8",
          "name": "status",
          "type": "uint8"
        }
      ],
      "name": "InvalidStatus",
      "type": "error"
    },
    {
      "inputs": [],
      "name": "NotInitializing",
      "type": "error"
    },
    {
      "inputs": [],
      "name": "UUPSUnauthorizedCallContext",
      "type": "error"
    },
    {
      "inputs": [
        {
          "internalType": "bytes32",
          "name": "slot",
          "type": "bytes32"
        }
      ],
      "name": "UUPSUnsupportedProxiableUUID",
      "type": "error"
    },
    {
      "inputs": [],
      "name": "ValueTypeNotNumber",
      "type": "error"
    },
    {
      "inputs": [],
      "name": "ZeroAddress",
      "type": "error"
    },
    {
      "anonymous": false,
      "inputs": [
        {
          "indexed": true,
          "internalType": "string",
          "name": "key",
          "type": "string"
        },
        {
          "indexed": false,
          "internalType": "string",
          "name": "value",
          "type": "string"
        },
        {
          "indexed": false,
          "internalType": "string",
          "name": "valueType",
          "type": "string"
        },
        {
          "indexed": false,
          "internalType": "uint8",
          "name": "status",
          "type": "uint8"
        }
      ],
      "name": "ConfigCreated",
      "type": "event"
    },
    {
      "anonymous": false,
      "inputs": [
        {
          "indexed": true,
          "internalType": "string",
          "name": "key",
          "type": "string"
        }
      ],
      "name": "ConfigDeleted",
      "type": "event"
    },
    {
      "anonymous": false,
      "inputs": [
        {
          "indexed": true,
          "internalType": "string",
          "name": "key",
          "type": "string"
        },
        {
          "indexed": false,
          "internalType": "uint8",
          "name": "oldStatus",
          "type": "uint8"
        },
        {
          "indexed": false,
          "internalType": "uint8",
          "name": "newStatus",
          "type": "uint8"
        }
      ],
      "name": "ConfigStatusChanged",
      "type": "event"
    },
    {
      "anonymous": false,
      "inputs": [
        {
          "indexed": true,
          "internalType": "string",
          "name": "key",
          "type": "string"
        },
        {
          "indexed": false,
          "internalType": "uint256",
          "name": "oldValue",
          "type": "uint256"
        },
        {
          "indexed": false,
          "internalType": "uint256",
          "name": "newValue",
          "type": "uint256"
        }
      ],
      "name": "ConfigUintValueUpdated",
      "type": "event"
    },
    {
      "anonymous": false,
      "inputs": [
        {
          "indexed": true,
          "internalType": "string",
          "name": "key",
          "type": "string"
        },
        {
          "indexed": false,
          "internalType": "string",
          "name": "oldValue",
          "type": "string"
        },
        {
          "indexed": false,
          "internalType": "string",
          "name": "newValue",
          "type": "string"
        },
        {
          "indexed": false,
          "internalType": "uint8",
          "name": "status",
          "type": "uint8"
        }
      ],
      "name": "ConfigUpdated",
      "type": "event"
    },
    {
      "anonymous": false,
      "inputs": [
        {
          "indexed": false,
          "internalType": "uint64",
          "name": "version",
          "type": "uint64"
        }
      ],
      "name": "Initialized",
      "type": "event"
    },
    {
      "anonymous": false,
      "inputs": [
        {
          "indexed": false,
          "internalType": "address",
          "name": "account",
          "type": "address"
        }
      ],
      "name": "Paused",
      "type": "event"
    },
    {
      "anonymous": false,
      "inputs": [
        {
          "indexed": true,
          "internalType": "bytes32",
          "name": "role",
          "type": "bytes32"
        },
        {
          "indexed": true,
          "internalType": "bytes32",
          "name": "previousAdminRole",
          "type": "bytes32"
        },
        {
          "indexed": true,
          "internalType": "bytes32",
          "name": "newAdminRole",
          "type": "bytes32"
        }
      ],
      "name": "RoleAdminChanged",
      "type": "event"
    },
    {
      "anonymous": false,
      "inputs": [
        {
          "indexed": true,
          "internalType": "bytes32",
          "name": "role",
          "type": "bytes32"
        },
        {
          "indexed": true,
          "internalType": "address",
          "name": "account",
          "type": "address"
        },
        {
          "indexed": true,
          "internalType": "address",
          "name": "sender",
          "type": "address"
        }
      ],
      "name": "RoleGranted",
      "type": "event"
    },
    {
      "anonymous": false,
      "inputs": [
        {
          "indexed": true,
          "internalType": "bytes32",
          "name": "role",
          "type": "bytes32"
        },
        {
          "indexed": true,
          "internalType": "address",
          "name": "account",
          "type": "address"
        },
        {
          "indexed": true,
          "internalType": "address",
          "name": "sender",
          "type": "address"
        }
      ],
      "name": "RoleRevoked",
      "type": "event"
    },
    {
      "anonymous": false,
      "inputs": [
        {
          "indexed": false,
          "internalType": "address",
          "name": "account",
          "type": "address"
        }
      ],
      "name": "Unpaused",
      "type": "event"
    },
    {
      "anonymous": false,
      "inputs": [
        {
          "indexed": true,
          "internalType": "address",
          "name": "implementation",
          "type": "address"
        }
      ],
      "name": "Upgraded",
      "type": "event"
    },
    {
      "inputs": [],
      "name": "CONFIG_ADMIN_ROLE",
      "outputs": [
        {
          "internalType": "bytes32",
          "name": "",
          "type": "bytes32"
        }
      ],
      "stateMutability": "view",
      "type": "function"
    },
    {
      "inputs": [],
      "name": "DEFAULT_ADMIN_ROLE",
      "outputs": [
        {
          "internalType": "bytes32",
          "name": "",
          "type": "bytes32"
        }
      ],
      "stateMutability": "view",
      "type": "function"
    },
    {
      "inputs": [],
      "name": "UPGRADER_ROLE",
      "outputs": [
        {
          "internalType": "bytes32",
          "name": "",
          "type": "bytes32"
        }
      ],
      "stateMutability": "view",
      "type": "function"
    },
    {
      "inputs": [],
      "name": "UPGRADE_INTERFACE_VERSION",
      "outputs": [
        {
          "internalType": "string",
          "name": "",
          "type": "string"
        }
      ],
      "stateMutability": "view",
      "type": "function"
    },
    {
      "inputs": [
        {
          "internalType": "string",
          "name": "key",
          "type": "string"
        },
        {
          "internalType": "string",
          "name": "value",
          "type": "string"
        },
        {
          "internalType": "string",
          "name": "valueType",
          "type": "string"
        },
        {
          "internalType": "string",
          "name": "description",
          "type": "string"
        },
        {
          "internalType": "uint8",
          "name": "status",
          "type": "uint8"
        }
      ],
      "name": "createConfig",
      "outputs": [],
      "stateMutability": "nonpayable",
      "type": "function"
    },
    {
      "inputs": [
        {
          "internalType": "string",
          "name": "key",
          "type": "string"
        }
      ],
      "name": "deleteConfig",
      "outputs": [],
      "stateMutability": "nonpayable",
      "type": "function"
    },
    {
      "inputs": [
        {
          "internalType": "string",
          "name": "key",
          "type": "string"
        }
      ],
      "name": "exists",
      "outputs": [
        {
          "internalType": "bool",
          "name": "",
          "type": "bool"
        }
      ],
      "stateMutability": "view",
      "type": "function"
    },
    {
      "inputs": [],
      "name": "getAllKeys",
      "outputs": [
        {
          "internalType": "string[]",
          "name": "",
          "type": "string[]"
        }
      ],
      "stateMutability": "view",
      "type": "function"
    },
    {
      "inputs": [
        {
          "internalType": "string",
          "name": "key",
          "type": "string"
        }
      ],
      "name": "getConfig",
      "outputs": [
        {
          "components": [
            {
              "internalType": "string",
              "name": "key",
              "type": "string"
            },
            {
              "internalType": "string",
              "name": "value",
              "type": "string"
            },
            {
              "internalType": "string",
              "name": "valueType",
              "type": "string"
            },
            {
              "internalType": "string",
              "name": "description",
              "type": "string"
            },
            {
              "internalType": "uint8",
              "name": "status",
              "type": "uint8"
            },
            {
              "internalType": "uint256",
              "name": "updatedAt",
              "type": "uint256"
            },
            {
              "internalType": "address",
              "name": "updatedBy",
              "type": "address"
            }
          ],
          "internalType": "struct PlatformConfig.ConfigItem",
          "name": "",
          "type": "tuple"
        }
      ],
      "stateMutability": "view",
      "type": "function"
    },
    {
      "inputs": [
        {
          "internalType": "string",
          "name": "key",
          "type": "string"
        }
      ],
      "name": "getConfigUintValue",
      "outputs": [
        {
          "internalType": "uint256",
          "name": "",
          "type": "uint256"
        }
      ],
      "stateMutability": "view",
      "type": "function"
    },
    {
      "inputs": [
        {
          "internalType": "bytes32",
          "name": "role",
          "type": "bytes32"
        }
      ],
      "name": "getRoleAdmin",
      "outputs": [
        {
          "internalType": "bytes32",
          "name": "",
          "type": "bytes32"
        }
      ],
      "stateMutability": "view",
      "type": "function"
    },
    {
      "inputs": [
        {
          "internalType": "bytes32",
          "name": "role",
          "type": "bytes32"
        },
        {
          "internalType": "address",
          "name": "account",
          "type": "address"
        }
      ],
      "name": "grantRole",
      "outputs": [],
      "stateMutability": "nonpayable",
      "type": "function"
    },
    {
      "inputs": [
        {
          "internalType": "bytes32",
          "name": "role",
          "type": "bytes32"
        },
        {
          "internalType": "address",
          "name": "account",
          "type": "address"
        }
      ],
      "name": "hasRole",
      "outputs": [
        {
          "internalType": "bool",
          "name": "",
          "type": "bool"
        }
      ],
      "stateMutability": "view",
      "type": "function"
    },
    {
      "inputs": [
        {
          "internalType": "address",
          "name": "admin",
          "type": "address"
        }
      ],
      "name": "initialize",
      "outputs": [],
      "stateMutability": "nonpayable",
      "type": "function"
    },
    {
      "inputs": [
        {
          "internalType": "uint256",
          "name": "offset",
          "type": "uint256"
        },
        {
          "internalType": "uint256",
          "name": "limit",
          "type": "uint256"
        }
      ],
      "name": "listConfigs",
      "outputs": [
        {
          "components": [
            {
              "internalType": "string",
              "name": "key",
              "type": "string"
            },
            {
              "internalType": "string",
              "name": "value",
              "type": "string"
            },
            {
              "internalType": "string",
              "name": "valueType",
              "type": "string"
            },
            {
              "internalType": "string",
              "name": "description",
              "type": "string"
            },
            {
              "internalType": "uint8",
              "name": "status",
              "type": "uint8"
            },
            {
              "internalType": "uint256",
              "name": "updatedAt",
              "type": "uint256"
            },
            {
              "internalType": "address",
              "name": "updatedBy",
              "type": "address"
            }
          ],
          "internalType": "struct PlatformConfig.ConfigItem[]",
          "name": "items",
          "type": "tuple[]"
        },
        {
          "internalType": "uint256",
          "name": "total",
          "type": "uint256"
        }
      ],
      "stateMutability": "view",
      "type": "function"
    },
    {
      "inputs": [],
      "name": "pause",
      "outputs": [],
      "stateMutability": "nonpayable",
      "type": "function"
    },
    {
      "inputs": [],
      "name": "paused",
      "outputs": [
        {
          "internalType": "bool",
          "name": "",
          "type": "bool"
        }
      ],
      "stateMutability": "view",
      "type": "function"
    },
    {
      "inputs": [],
      "name": "proxiableUUID",
      "outputs": [
        {
          "internalType": "bytes32",
          "name": "",
          "type": "bytes32"
        }
      ],
      "stateMutability": "view",
      "type": "function"
    },
    {
      "inputs": [
        {
          "internalType": "bytes32",
          "name": "role",
          "type": "bytes32"
        },
        {
          "internalType": "address",
          "name": "callerConfirmation",
          "type": "address"
        }
      ],
      "name": "renounceRole",
      "outputs": [],
      "stateMutability": "nonpayable",
      "type": "function"
    },
    {
      "inputs": [
        {
          "internalType": "bytes32",
          "name": "role",
          "type": "bytes32"
        },
        {
          "internalType": "address",
          "name": "account",
          "type": "address"
        }
      ],
      "name": "revokeRole",
      "outputs": [],
      "stateMutability": "nonpayable",
      "type": "function"
    },
    {
      "inputs": [
        {
          "internalType": "string",
          "name": "key",
          "type": "string"
        },
        {
          "internalType": "uint8",
          "name": "newStatus",
          "type": "uint8"
        }
      ],
      "name": "setConfigStatus",
      "outputs": [],
      "stateMutability": "nonpayable",
      "type": "function"
    },
    {
      "inputs": [
        {
          "internalType": "string",
          "name": "key",
          "type": "string"
        },
        {
          "internalType": "uint256",
          "name": "newUintValue",
          "type": "uint256"
        }
      ],
      "name": "setConfigUintValue",
      "outputs": [],
      "stateMutability": "nonpayable",
      "type": "function"
    },
    {
      "inputs": [
        {
          "internalType": "bytes4",
          "name": "interfaceId",
          "type": "bytes4"
        }
      ],
      "name": "supportsInterface",
      "outputs": [
        {
          "internalType": "bool",
          "name": "",
          "type": "bool"
        }
      ],
      "stateMutability": "view",
      "type": "function"
    },
    {
      "inputs": [],
      "name": "totalConfigs",
      "outputs": [
        {
          "internalType": "uint256",
          "name": "",
          "type": "uint256"
        }
      ],
      "stateMutability": "view",
      "type": "function"
    },
    {
      "inputs": [],
      "name": "unpause",
      "outputs": [],
      "stateMutability": "nonpayable",
      "type": "function"
    },
    {
      "inputs": [
        {
          "internalType": "string",
          "name": "key",
          "type": "string"
        },
        {
          "internalType": "string",
          "name": "value",
          "type": "string"
        },
        {
          "internalType": "string",
          "name": "valueType",
          "type": "string"
        },
        {
          "internalType": "string",
          "name": "description",
          "type": "string"
        },
        {
          "internalType": "uint8",
          "name": "status",
          "type": "uint8"
        }
      ],
      "name": "updateConfig",
      "outputs": [],
      "stateMutability": "nonpayable",
      "type": "function"
    },
    {
      "inputs": [
        {
          "internalType": "address",
          "name": "newImplementation",
          "type": "address"
        },
        {
          "internalType": "bytes",
          "name": "data",
          "type": "bytes"
        }
      ],
      "name": "upgradeToAndCall",
      "outputs": [],
      "stateMutability": "payable",
      "type": "function"
    }
  ],
  "bytecode": "0x60a080604052346100c257306080525f516020612a955f395f51905f525460ff8160401c166100b3576002600160401b03196001600160401b03821601610060575b6040516129ce90816100c7823960805181818161148f01526115320152f35b6001600160401b0319166001600160401b039081175f516020612a955f395f51905f525581527fc7f505b2f371ae2175ee4913f4499e1f2633a7b5936321eed1cdaeb6115181d290602090a15f80610041565b63f92ee8a960e01b5f5260045ffd5b5f80fdfe6080806040526004361015610012575f80fd5b5f3560e01c90816301ffc9a714611a9957508063248a9ca314611a62578063261a323e14611a1d5780632f2ff15d146119d3578063347359d5146117d557806336568abe146117915780633f4ba83a146117135780634f1ef286146114e357806352d1902d1461147d5780635c975abb1461144f5780636885e6a9146111b85780636f9d573614610f7e5780638456cb5914610f0d57806391d1485414610eb85780639fe84aca14610e9b578063a217fddf14610e81578063ad3cb1cc14610e3a578063b44bd51d14610d3d578063bc87eed314610c58578063c4d66de8146107d2578063c723d9f1146106ad578063c78ef28c14610673578063c895ea2714610487578063cd48b51b1461033a578063d547741f146102e9578063e1e46037146101835763f72c0d8b14610145575f80fd5b3461017f575f36600319011261017f5760206040517f189ab7a9244df0848122154315af71fe140f3db0fe014031783b0946b8c9d2e38152f35b5f80fd5b3461017f57602036600319011261017f576004356001600160401b03811161017f576101b3903690600401611aec565b80156102da576101c4368284611b9c565b6020815191012091825f525f60205260405f209161025a604051946101e886611b45565b6101f185611dc6565b86526101ff60018601611dc6565b956020810196875260c061021560028801611dc6565b966040830197885261022960038201611dc6565b6060840152600481015460ff166080840152600581015460a0840152600601546001600160a01b0316910152612142565b156102b257837ff648814c67221440671fd7c2de979db4020a9320fb7985ff79ca8e7dced277f8845160208151910120036102a35761029b6020915161256b565b604051908152f35b63390425e160e11b5f5260045ffd5b6102d6604051928392630eabffe760e31b8452602060048501526024840191611d42565b0390fd5b630f35a7eb60e21b5f5260045ffd5b3461017f57604036600319011261017f57610338600435610308611b19565b9061033361032e825f525f5160206129395f395f51905f52602052600160405f20015490565b6121c9565b6124cf565b005b3461017f5761034836611bd2565b94959693919061035998939861215a565b6103616124a8565b61036c868686612623565b610377368686611b9c565b6020815191012092835f525f60205261039360405f2094612142565b156104645788996001859a999a018a6103ab82611dc6565b9a6103b592611fe0565b6103c29160028601611fe0565b6103cf9160038401611fe0565b60048101805460ff191660ff861617905542600582015560060180546001600160a01b031916331790556040519182918190833781015f815203902093604051938493606085526060850161042391611c74565b90848203602086015261043592611d42565b9060ff166040830152037f611744ffae662962039b5626fbe6dafc70bb95396f8fa2956a3540eacb6488bb91a2005b604051630eabffe760e31b815260206004820152806102d6602482018989611d42565b3461017f57604036600319011261017f57600254600435602435801561065d5782821161065d576104b89082612121565b828111610656575b818103908111610642576104d3816120cf565b916104e16040519384611b60565b818352601f196104f0836120cf565b015f5b81811061062b5750505f5b82811061056e5750505060405190604082016040835281518091526060830190602060608260051b8601019301915f905b828210610543578580868960208301520390f35b90919293602080610560600193605f198a82030186528851611c98565b96019201920190929161052f565b8061058c61058661058160019486612121565b611d62565b50611dc6565b602081519101205f525f60205260405f20604051906105aa82611b45565b6105b381611dc6565b82526105c0848201611dc6565b60208301526105d160028201611dc6565b60408301526105e260038201611dc6565b606083015260ff6004820154166080830152600581015460a08301526006848060a01b039101541660c0820152610619828761212e565b52610624818661212e565b50016104fe565b602090610636612096565b828288010152016104f3565b634e487b7160e01b5f52601160045260245ffd5b50816104c0565b90632457cde760e01b5f5260045260245260445ffd5b3461017f575f36600319011261017f5760206040517fb92d52e77ebaa0cae5c23e882d85609efbcb44029214147dd132daf9ef1018af8152f35b3461017f57604036600319011261017f576004356001600160401b03811161017f576106dd903690600401611aec565b906024359160ff83169283810361017f57610709906106fa61215a565b6107026124a8565b8284612623565b610714368284611b9c565b6020815191012091825f525f60205261073060405f2093612142565b156107ad5760048301805460ff1981168617909155426005850155600690930180546001600160a01b03191633179055604080517f2fb74f49f542bb7cefe47b14cf1eb9bbb619c29466db3592093a791c4d503a6094919360ff9290921692909182918190833781015f81520390209382519182526020820152a2005b604051630eabffe760e31b8152602060048201529182916102d6916024840191611d42565b3461017f57602036600319011261017f576107eb611b2f565b5f5160206129795f395f51905f52549060ff8260401c1615916001600160401b03811680159081610c50575b6001149081610c46575b159081610c3d575b50610c2e5767ffffffffffffffff1981166001175f5160206129795f395f51905f525582610c02575b506001600160a01b03811615610bf35761088f9061086e612841565b610876612841565b61087f8161220f565b50610889816122ab565b50612364565b5060409061094982516108a28482611b60565b601e81527f7361702e746f6b656e2e6275636b65742e636f6d6d756e6974792e6361700000602082015283516108d88582611b60565b601b81527f35303030303030303030303030303030303030303030303030303000000000006020820152845191610910606084611b60565b602283527f53415020e7a4bee58cbae6bf80e58ab1e6a1b6e4b88ae99990efbc88353025ef602084015261bc8960f01b86840152612675565b6109ff82516109588482611b60565b601e81527f7361702e746f6b656e2e6275636b65742e65636f73797374656d2e63617000006020820152835161098e8582611b60565b601b81527f323030303030303030303030303030303030303030303030303030000000000060208201528451916109c6606084611b60565b602283527f53415020e7949fe68081e59fbae98791e6a1b6e4b88ae99990efbc88323025ef602084015261bc8960f01b86840152612675565b610a7c8251610a0e8482611b60565b601981527f7361702e746f6b656e2e6275636b65742e7465616d2e636170000000000000006020820152610a406120e6565b845191610a4d8684611b60565b601c83527f53415020e59ba2e9989fe6a1b6e4b88ae99990efbc88313525efbc89000000006020840152612675565b610af98251610a8b8482611b60565b601e81527f7361702e746f6b656e2e6275636b65742e696e766573746f72732e63617000006020820152610abd6120e6565b845191610aca8684611b60565b601f83527f53415020e68a95e8b584e88085e6a1b6e4b88ae99990efbc88313525efbc89006020840152612675565b610b978251610b088482611b60565b601d81527f7361702e746f6b656e2e6275636b65742e74726561737572792e63617000000060208201528351610b3e8582611b60565b60018152600360fc1b6020820152845191610b5a606084611b60565b602683527f53415020e98791e5ba93e6a1b6e4b88ae99990efbc88e5bd93e5898de9bb98e8602084015265aea430efbc8960d01b86840152612675565b610b9d57005b60207fc7f505b2f371ae2175ee4913f4499e1f2633a7b5936321eed1cdaeb6115181d29168ff0000000000000000195f5160206129795f395f51905f5254165f5160206129795f395f51905f52555160018152a1005b63d92e233d60e01b5f5260045ffd5b68ffffffffffffffffff191668010000000000000001175f5160206129795f395f51905f525582610852565b63f92ee8a960e01b5f5260045ffd5b90501584610829565b303b159150610821565b849150610817565b3461017f575f36600319011261017f57600254610c74816120cf565b90610c826040519283611b60565b80825260208201908160025f527f405787fa12a823e0f2b7631cc41b3ba8828b3321ca811111fa75cd3aa3bb5ace5f915b838310610d2057848660405191829160208301906020845251809152604083019060408160051b85010192915f905b828210610cf157505050500390f35b91936001919395506020610d108192603f198a82030186528851611c74565b9601920192018594939192610ce2565b600160208192610d2f85611dc6565b815201920192019190610cb3565b3461017f57602036600319011261017f576004356001600160401b03811161017f57610d6d903690600401611aec565b90610d76612096565b5081156102da57610d88368383611b9c565b6020815191012091610d9983612142565b156102b257825f525f602052610e3660405f2060405190610db982611b45565b610dc281611dc6565b8252610dd060018201611dc6565b6020830152610de160028201611dc6565b6040830152610df260038201611dc6565b6060830152600481015460ff166080830152600581015460a0830152600601546001600160a01b031660c08201526040516020808252909283929091830190611c98565b0390f35b3461017f575f36600319011261017f57610e36604051610e5b604082611b60565b60058152640352e302e360dc1b6020820152604051918291602083526020830190611c74565b3461017f575f36600319011261017f5760206040515f8152f35b3461017f575f36600319011261017f576020600254604051908152f35b3461017f57604036600319011261017f57610ed1611b19565b6004355f525f5160206129395f395f51905f5260205260405f209060018060a01b03165f52602052602060ff60405f2054166040519015158152f35b3461017f575f36600319011261017f57610f2561215a565b610f2d6124a8565b600160ff195f5160206129595f395f51905f525416175f5160206129595f395f51905f52557f62e78cea01bee320cd4e420270b5ea74000d11b0c9f74754ebdbfc544b05a2586020604051338152a1005b3461017f57610f8c36611bd2565b90949596929791610f9b61215a565b610fa36124a8565b610fae828585612623565b610fb9368585611b9c565b6020815191012090610fca82612142565b61119557600254600160401b81101561118157806001610fed9201600255611d62565b61116e578585610ffc92611fe0565b6002545f19810190811161064257825f52600160205260405f20556040519261102484611b45565b61102f368787611b9c565b845261103c368a8c611b9c565b602085019081529161104f368d8a611b9c565b9860408601998a52369061106292611b9c565b60608501908152608085019160ff169889835260a086019342855260c08701953387525f525f60205260405f20965161109b9088611ebf565b516110a99060018801611ebf565b516110b79060028701611ebf565b516110c59060038601611ebf565b5160048401805460ff191660ff90921691909117905551600583015551600690910180546001600160a01b0319166001600160a01b03929092169190911790556040519182918190833781015f81520390209460405194859460608652606086019061113092611d42565b90848203602086015261114292611d42565b906040830152037fc907e99c68eb2e9c6e29bc9c5c83dc6daa5cded7e5b26ef391c5c5aa20b0dbaa91a2005b634e487b7160e01b5f525f60045260245ffd5b634e487b7160e01b5f52604160045260245ffd5b60405163a6bf0a4b60e01b815260206004820152806102d6602482018888611d42565b3461017f57604036600319011261017f576004356001600160401b03811161017f576111e8903690600401611aec565b90602435916111f561215a565b6111fd6124a8565b80156102da5761120e368284611b9c565b6020815191012091825f525f60205261122a60405f2093612142565b156107ad577ff648814c67221440671fd7c2de979db4020a9320fb7985ff79ca8e7dced277f861125c60028501611dc6565b60208151910120036102a357600183019161127e61127984611dc6565b61256b565b915f868072184f03e93ff9f4daa797ed6e38ed64bf6a1f0160401b81101561142c575b806d04ee2d6d415b85acef8100000000600a921015611411575b662386f26fc100008110156113fd575b6305f5e1008110156113ec575b6127108110156113dd575b60648110156113cf575b10156113c4575b600a6021600184019361130685611b81565b946113146040519687611b60565b808652611323601f1991611b81565b013660208701378401015b5f1901916f181899199a1a9b1b9c1cb0b131b232b360811b8282061a83530490811561135c57600a9061132e565b50507f8b54094b7861f754b2e2b2b00c214299c5a97bd69858a3830f2d80249362bd739561138e600692604097611ebf565b4260058201550180546001600160a01b0319163317905583519182918190833781015f81520390209382519182526020820152a2005b6001909101906112f4565b6064600291049301926112ed565b612710600491049301926112e3565b6305f5e100600891049301926112d8565b662386f26fc10000601091049301926112cb565b6d04ee2d6d415b85acef8100000000602091049301926112bb565b506040915072184f03e93ff9f4daa797ed6e38ed64bf6a1f0160401b88046112a1565b3461017f575f36600319011261017f57602060ff5f5160206129595f395f51905f5254166040519015158152f35b3461017f575f36600319011261017f577f00000000000000000000000000000000000000000000000000000000000000006001600160a01b031630036114d45760206040515f5160206129195f395f51905f528152f35b63703e46dd60e11b5f5260045ffd5b604036600319011261017f576114f7611b2f565b6024356001600160401b03811161017f573660238201121561017f57611527903690602481600401359101611b9c565b906001600160a01b037f0000000000000000000000000000000000000000000000000000000000000000163081149081156116f1575b506114d457335f9081527fab71e3f32666744d246edff3f96e4bdafee2e9867098cdd118a979a7464786a8602052604090205460ff16156116ba576040516352d1902d60e01b81526001600160a01b0382169290602081600481875afa5f9181611686575b506115da5783634c9c8ce360e01b5f5260045260245ffd5b805f5160206129195f395f51905f528592036116745750823b15611662575f5160206129195f395f51905f5280546001600160a01b031916821790557fbc7cd75a20ee27fd9adebab32041f755214dbc6bffa90cc0225b39da2e5c2d3b5f80a280511561164a576103389161286c565b50503461165357005b63b398979f60e01b5f5260045ffd5b634c9c8ce360e01b5f5260045260245ffd5b632a87526960e21b5f5260045260245ffd5b9091506020813d6020116116b2575b816116a260209383611b60565b8101031261017f575190856115c2565b3d9150611695565b63e2517d3f60e01b5f52336004527f189ab7a9244df0848122154315af71fe140f3db0fe014031783b0946b8c9d2e360245260445ffd5b5f5160206129195f395f51905f52546001600160a01b0316141590508361155d565b3461017f575f36600319011261017f5761172b61215a565b5f5160206129595f395f51905f525460ff8116156117825760ff19165f5160206129595f395f51905f52557f5db9ee0a495bf2e6ff9c91a7834c1ba4fdd244a5e8aa4e537bd38aeae4b073aa6020604051338152a1005b638dfc202b60e01b5f5260045ffd5b3461017f57604036600319011261017f576117aa611b19565b336001600160a01b038216036117c657610338906004356124cf565b63334bd91960e11b5f5260045ffd5b3461017f57602036600319011261017f576004356001600160401b03811161017f57611805903690600401611aec565b9061180e61215a565b6118166124a8565b81156102da57611827368383611b9c565b6020815191012061183781612142565b156119ad57805f52600160205260405f20546002545f19810190811161064257808203611974575b50506002548015611960575f190161187681611d62565b61116e576118848154611d8e565b908161191d575b5050600255805f5260016020525f60408120555f525f6020525f6006604082206118b481611f92565b6118c060018201611f92565b6118cc60028201611f92565b6118d860038201611f92565b826004820155826005820155015581604051928392833781015f81520390207febf33680edee331b9141ebdcb7f133433998fe6decf4e260072e4078f25713bd5f80a2005b81601f5f93116001146119345750555b848061188b565b8183526020832061195091601f0160051c810190600101611e66565b808252816020812091555561192d565b634e487b7160e01b5f52603160045260245ffd5b61058661198091611d62565b6119938161198d84611d62565b90611f83565b602081519101205f52600160205260405f2055838061185f565b50604051630eabffe760e31b8152602060048201529182916102d6916024840191611d42565b3461017f57604036600319011261017f576103386004356119f2611b19565b90611a1861032e825f525f5160206129395f395f51905f52602052600160405f20015490565b61241d565b3461017f57602036600319011261017f576004356001600160401b03811161017f57611a58611a526020923690600401611aec565b90611d17565b6040519015158152f35b3461017f57602036600319011261017f57602061029b6004355f525f5160206129395f395f51905f52602052600160405f20015490565b3461017f57602036600319011261017f576004359063ffffffff60e01b821680920361017f57602091637965db0b60e01b8114908115611adb575b5015158152f35b6301ffc9a760e01b14905083611ad4565b9181601f8401121561017f578235916001600160401b03831161017f576020838186019501011161017f57565b602435906001600160a01b038216820361017f57565b600435906001600160a01b038216820361017f57565b60e081019081106001600160401b0382111761118157604052565b90601f801991011681019081106001600160401b0382111761118157604052565b6001600160401b03811161118157601f01601f191660200190565b929192611ba882611b81565b91611bb66040519384611b60565b82948184528183011161017f578281602093845f960137010152565b60a060031982011261017f576004356001600160401b03811161017f5781611bfc91600401611aec565b929092916024356001600160401b03811161017f5781611c1e91600401611aec565b929092916044356001600160401b03811161017f5781611c4091600401611aec565b92909291606435906001600160401b03821161017f57611c6291600401611aec565b909160843560ff8116810361017f5790565b805180835260209291819084018484015e5f828201840152601f01601f1916010190565b9060c0611ced611cdb611cc9611cb7865160e0875260e0870190611c74565b60208701518682036020880152611c74565b60408601518582036040870152611c74565b60608501518482036060860152611c74565b60808085015160ff169084015260a08085015190840152928101516001600160a01b031691015290565b908015611d3c57611d3991611d2d913691611b9c565b60208151910120612142565b90565b50505f90565b908060209392818452848401375f828201840152601f01601f1916010190565b600254811015611d7a5760025f5260205f2001905f90565b634e487b7160e01b5f52603260045260245ffd5b90600182811c92168015611dbc575b6020831014611da857565b634e487b7160e01b5f52602260045260245ffd5b91607f1691611d9d565b9060405191825f825492611dd984611d8e565b8084529360018116908115611e445750600114611e00575b50611dfe92500383611b60565b565b90505f9291925260205f20905f915b818310611e28575050906020611dfe928201015f611df1565b6020919350806001915483858901015201910190918492611e0f565b905060209250611dfe94915060ff191682840152151560051b8201015f611df1565b818110611e71575050565b5f8155600101611e66565b9190601f8111611e8b57505050565b611dfe925f5260205f20906020601f840160051c83019310611eb5575b601f0160051c0190611e66565b9091508190611ea8565b91909182516001600160401b03811161118157611ee681611ee08454611d8e565b84611e7c565b6020601f8211600114611f25578190611f169394955f92611f1a575b50508160011b915f199060031b1c19161790565b9055565b015190505f80611f02565b601f19821690835f52805f20915f5b818110611f6b57509583600195969710611f53575b505050811b019055565b01515f1960f88460031b161c191690555f8080611f49565b9192602060018192868b015181550194019201611f34565b919061116e57611dfe91611ebf565b611f9c8154611d8e565b9081611fa6575050565b81601f5f9311600114611fb7575055565b81835260208320611fd391601f0160051c810190600101611e66565b8082528160208120915555565b9092916001600160401b03811161118157611fff81611ee08454611d8e565b5f601f8211600114612038578190611f169394955f9261202d5750508160011b915f199060031b1c19161790565b013590505f80611f02565b601f19821694835f5260205f20915f5b87811061207e57508360019596971061206557505050811b019055565b01355f19600384901b60f8161c191690555f8080611f49565b90926020600181928686013581550194019101612048565b604051906120a382611b45565b5f60c0836060815260606020820152606060408201526060808201528260808201528260a08201520152565b6001600160401b0381116111815760051b60200190565b604051906120f5604083611b60565b601b82527f31353030303030303030303030303030303030303030303030303000000000006020830152565b9190820180921161064257565b8051821015611d7a5760209160051b010190565b5f525f60205261215560405f2054611d8e565b151590565b335f9081527f985e7e44dfcb208cb67a8ab5f4ddea68569700462a8bdd41960667c1dc173537602052604090205460ff161561219257565b63e2517d3f60e01b5f52336004527fb92d52e77ebaa0cae5c23e882d85609efbcb44029214147dd132daf9ef1018af60245260445ffd5b5f8181525f5160206129395f395f51905f526020908152604080832033845290915290205460ff16156121f95750565b63e2517d3f60e01b5f523360045260245260445ffd5b6001600160a01b0381165f9081527fb7db2dd08fcb62d0c9e08c51941cae53c267786a0b75803fb7960902fc8ef97d602052604090205460ff166122a6576001600160a01b03165f8181527fb7db2dd08fcb62d0c9e08c51941cae53c267786a0b75803fb7960902fc8ef97d60205260408120805460ff191660011790553391905f5160206128f95f395f51905f528180a4600190565b505f90565b6001600160a01b0381165f9081527f985e7e44dfcb208cb67a8ab5f4ddea68569700462a8bdd41960667c1dc173537602052604090205460ff166122a6576001600160a01b03165f8181527f985e7e44dfcb208cb67a8ab5f4ddea68569700462a8bdd41960667c1dc17353760205260408120805460ff191660011790553391907fb92d52e77ebaa0cae5c23e882d85609efbcb44029214147dd132daf9ef1018af905f5160206128f95f395f51905f529080a4600190565b6001600160a01b0381165f9081527fab71e3f32666744d246edff3f96e4bdafee2e9867098cdd118a979a7464786a8602052604090205460ff166122a6576001600160a01b03165f8181527fab71e3f32666744d246edff3f96e4bdafee2e9867098cdd118a979a7464786a860205260408120805460ff191660011790553391907f189ab7a9244df0848122154315af71fe140f3db0fe014031783b0946b8c9d2e3905f5160206128f95f395f51905f529080a4600190565b5f8181525f5160206129395f395f51905f52602090815260408083206001600160a01b038616845290915290205460ff16611d3c575f8181525f5160206129395f395f51905f52602090815260408083206001600160a01b0395909516808452949091528120805460ff19166001179055339291905f5160206128f95f395f51905f529080a4600190565b60ff5f5160206129595f395f51905f5254166124c057565b63d93c066560e01b5f5260045ffd5b5f8181525f5160206129395f395f51905f52602090815260408083206001600160a01b038616845290915290205460ff1615611d3c575f8181525f5160206129395f395f51905f52602090815260408083206001600160a01b0395909516808452949091528120805460ff19169055339291907ff6391f5c32d9c69d2a47ea670b442974b53935d1edc7fd64eb21e047a839171b9080a4600190565b90815115612601575f91825b81518410156125fc576020848301015160f81c6030811080156125f2575b6125d057600a820291808304600a149015171561064257602f190160ff81116106425760019160ff6125c8921690612121565b930192612577565b604051638348eb8f60e01b815260206004820152806102d66024820186611c74565b5060398111612595565b925050565b604051638348eb8f60e01b815260206004820152806102d66024820185611c74565b50156102da5760ff168015158061264e575b61263c5750565b633ba7bf8960e11b5f5260045260245ffd5b506001811415612635565b602090604051918183925191829101835e81015f815203902090565b9182516020840120600254600160401b811015611181578461198d8260016126a09401600255611d62565b6002545f19810191908211610642577f8b54094b7861f754b2e2b2b00c214299c5a97bd69858a3830f2d80249362bd739360ff60068361277d966128329661282c965f52600160205260405f20556040519384916126fd83611b45565b8b8352612787602084019188835260409b8c936127738551916127208784611b60565b8a835265373ab6b132b960d11b60208401528689019283526060890194855261276960808a01975f895260c060a08c019b428d52019b338d525f525f6020525f209c518d611ebf565b5160018c01611ebf565b5160028a01611ebf565b5160038801611ebf565b5160048601805460ff191660ff939092169290921617905551600584015551910180546001600160a01b0319166001600160a01b03929092169190911790556127cf86612659565b7fc907e99c68eb2e9c6e29bc9c5c83dc6daa5cded7e5b26ef391c5c5aa20b0dbaa855160608152866128046060830186611c74565b65373ab6b132b960d11b60208483039283828701526006815201525f828401520190a261256b565b93612659565b928151905f82526020820152a2565b60ff5f5160206129795f395f51905f525460401c161561285d57565b631afcd79f60e31b5f5260045ffd5b905f8091602081519101845af480806128e5575b156128a05750506040513d81523d5f602083013e60203d82010160405290565b156128c557639996b31560e01b5f9081526001600160a01b0391909116600452602490fd5b3d156128d6576040513d5f823e3d90fd5b63d6bda27560e01b5f5260045ffd5b503d1515806128805750813b151561288056fe2f8788117e7eff1d82e926ec794901d17c78024a50270940304540a733656f0d360894a13ba1a3210667c828492db98dca3e2076cc3735a920a3ca505d382bbc02dd7bc7dec4dceedda775e58dd541e08a116c6c53815c0bd028192f7b626800cd5ed15c6e187e77e9aee88184c21f4f2182ab5827cb3b7e07fbedcd63f03300f0c57e16840df040f15088dc2f81fe391c3923bec73e23a9662efc9c229c6a00a2646970667358221220588fe0788c92d2f6040913262075410dbfc266dcc8345928f0abd659e1ff579a64736f6c634300081c0033f0c57e16840df040f15088dc2f81fe391c3923bec73e23a9662efc9c229c6a00",
  "linkReferences": {},
  "deployedLinkReferences": {},
  "immutableReferences": {
    "2775": [
      {
        "length": 32,
        "start": 5263
      },
      {
        "length": 32,
        "start": 5426
      }
    ]
  },
  "inputSourceName": "project/contracts/platform_config/PlatformConfig.sol",
  "buildInfoId": "solc-0_8_28-992bc4f8dde32db012411219db00d70259dcaa9a"
}